:080000000C943F000C94000079
:100008000C9400000C9400000C9400000C94000068
:100018000C9400000C9400000C9400000C94000058
:100028000C9400000C9400000C9400000C94000048
:100038000C9400000C9400000C9400000C94000038
:100048000C9400000C9400000C94000000000000C8
:10005800000000003F0030005B004F0066006D00AC
:100068007D0007007F0067000800040054001300AB
:1000780060015C000000F894EE27ECBBF1E0FBBFE8
:10008800EBBFE5BF8DE0A2E0BB27ED938A95E9F7CA
:1000980080E094E0A0E6ED930197E9F7E0E7F0E06F
:1000A80085919591009761F0A591B591059015906E
:1000B800BF01F00105900D920197E1F7FB01F0CF28
:1000C800EFE5EDBFE4E0EEBFC0E6D1E00C946C00D4
:1000D800E8E0E5BBEDE9E4BBE0E8E2BBEFEFE1BB5C
:1000E800EFEDE8BBE0E2E7BBE0E0EBBBEFE7EABB44
:1000F800F20183D00A2C0B2891F488D041F0B09BF0
:1001080006C0B19B04C0B29B02C0B39901C007C02E
:10011800F50131965F01A4EFB1E0A8D0EECF76D01B
:1001280009F479D0B09905C0E0916001E2BB882458
:100138009924B19B70D0B29906C0E0916401E2BBEA
:10014800E2E0F0E04F01B39906C0E0916601E2BB3E
:10015800E3E0F0E04F013401B49B03C057D009F04D
:100168004AC0A8ECB0E082D04614570409F442C053
:1001780046145704D4F462016C147D04B4F06C1472
:100188007D0429F44FD0F60138D052D00EC0A89A79
:10019800AA9861D0D601AA0FBB1FAE59BE4FEC91E9
:1001A800EBBBF60131966F01E7CF6414750414F5C3
:1001B800A898AA9A409274015092750152D0A61537
:1001C800B705C4F04ED06A167B0619F42BD030D090
:1001D80011C0A898AA9A3FD0E0917401F0917501D6
:1001E80031970BD0A4E7B1E0ED91FD913197FE93E3
:1001F800EE93E4CF23017CCFFFCFA0E6B1E0EE0F72
:10020800FF1FAE0FBF1FEC91EBBB0895EAE0F0E0D3
:10021800EA15FB050895E0916201E2BBE1E0F0E038
:100228004F010895A898AA98C59AA0E9B1E01EC000
:10023800AC9AAF98A0EDB7E019D0AC98AF9AA0ED02
:10024800B7E014D0AC98AF98C598A0E9B1E00ED04B
:10025800AA24BB240895A0EDB7E008D0A898AA98CE
:100268000895A0917401B09175010895109639F020
:10027800A89588EE93E00197F1F71197C9F70895CB
:00000001FF
